{
  "_format": "hh-sol-artifact-1",
  "contractName": "PaymentBridge",
  "sourceName": "contracts/PaymentBridge.sol",
  "abi": [
    {
      "anonymous": false,
      "inputs": [
        {
          "indexed": true,
          "internalType": "address",
          "name": "token",
          "type": "address"
        },
        {
          "indexed": true,
          "internalType": "address",
          "name": "payer",
          "type": "address"
        },
        {
          "indexed": true,
          "internalType": "address",
          "name": "recipient",
          "type": "address"
        },
        {
          "indexed": false,
          "internalType": "uint256",
          "name": "amount",
          "type": "uint256"
        }
      ],
      "name": "Payment",
      "type": "event"
    },
    {
      "inputs": [],
      "name": "daiAddress",
      "outputs": [
        {
          "internalType": "address",
          "name": "",
          "type": "address"
        }
      ],
      "stateMutability": "view",
      "type": "function"
    },
    {
      "inputs": [
        {
          "internalType": "address",
          "name": "_treasuryAddress",
          "type": "address"
        },
        {
          "internalType": "address",
          "name": "_wrapAndZap",
          "type": "address"
        },
        {
          "internalType": "address",
          "name": "_omnibridgeAddress",
          "type": "address"
        },
        {
          "internalType": "address",
          "name": "_xdaibridgeAddress",
          "type": "address"
        },
        {
          "internalType": "address",
          "name": "_daiAddress",
          "type": "address"
        },
        {
          "internalType": "address",
          "name": "_weth",
          "type": "address"
        }
      ],
      "name": "initialize",
      "outputs": [],
      "stateMutability": "nonpayable",
      "type": "function"
    },
    {
      "inputs": [],
      "name": "omnibridgeAddress",
      "outputs": [
        {
          "internalType": "address",
          "name": "",
          "type": "address"
        }
      ],
      "stateMutability": "view",
      "type": "function"
    },
    {
      "inputs": [
        {
          "internalType": "uint256",
          "name": "_amount",
          "type": "uint256"
        },
        {
          "internalType": "address",
          "name": "tokenAddress",
          "type": "address"
        }
      ],
      "name": "pay",
      "outputs": [],
      "stateMutability": "payable",
      "type": "function"
    },
    {
      "inputs": [],
      "name": "treasuryAddress",
      "outputs": [
        {
          "internalType": "address",
          "name": "",
          "type": "address"
        }
      ],
      "stateMutability": "view",
      "type": "function"
    },
    {
      "inputs": [],
      "name": "weth",
      "outputs": [
        {
          "internalType": "contract IWETH",
          "name": "",
          "type": "address"
        }
      ],
      "stateMutability": "view",
      "type": "function"
    },
    {
      "inputs": [],
      "name": "wrapAndZapAddress",
      "outputs": [
        {
          "internalType": "address",
          "name": "",
          "type": "address"
        }
      ],
      "stateMutability": "view",
      "type": "function"
    },
    {
      "inputs": [],
      "name": "xdaibridgeAddress",
      "outputs": [
        {
          "internalType": "address",
          "name": "",
          "type": "address"
        }
      ],
      "stateMutability": "view",
      "type": "function"
    }
  ],
  "bytecode": "0x608060405234801561001057600080fd5b5061092c806100206000396000f3fe60806040526004361061007b5760003560e01c80633fc8cef31161004e5780633fc8cef314610111578063b024a1ff14610131578063c5f956af14610151578063cc2a9a5b1461017757600080fd5b806319d07180146100805780631f53be8a146100bc5780632c387275146100dc57806331cbf5e3146100fc575b600080fd5b34801561008c57600080fd5b506002546100a0906001600160a01b031681565b6040516001600160a01b03909116815260200160405180910390f35b3480156100c857600080fd5b506003546100a0906001600160a01b031681565b3480156100e857600080fd5b506004546100a0906001600160a01b031681565b61010f61010a3660046108ca565b610197565b005b34801561011d57600080fd5b506005546100a0906001600160a01b031681565b34801561013d57600080fd5b506001546100a0906001600160a01b031681565b34801561015d57600080fd5b506000546100a0906201000090046001600160a01b031681565b34801561018357600080fd5b5061010f610192366004610814565b61050a565b60015481906001600160a01b0316156101b857506001546001600160a01b03165b6001600160a01b0382166102fc57600560009054906101000a90046001600160a01b03166001600160a01b031663d0e30db0846040518263ffffffff1660e01b81526004016000604051808303818588803b15801561021657600080fd5b505af115801561022a573d6000803e3d6000fd5b505060025460055460405163ad58bdd160e01b81526001600160a01b0391821660048201528682166024820152604481018990529116935063ad58bdd192506064019050600060405180830381600087803b15801561028857600080fd5b505af115801561029c573d6000803e3d6000fd5b50505050806001600160a01b0316336001600160a01b0316836001600160a01b03167f0913aa4718e76655dbdbde41862a88aba8459d8721849484c97f53af3b5028e6866040516102ef91815260200190565b60405180910390a4505050565b6040516323b872dd60e01b81523360048201523060248201526044810184905282906001600160a01b038216906323b872dd90606401602060405180830381600087803b15801561034c57600080fd5b505af1158015610360573d6000803e3d6000fd5b505050506040513d601f19601f820116820180604052508101906103849190610888565b506004546001600160a01b0384811691161415610426576003546103b39082906001600160a01b031686610520565b60035460405163ad58bdd160e01b81526001600160a01b0385811660048301528481166024830152604482018790529091169063ad58bdd190606401600060405180830381600087803b15801561040957600080fd5b505af115801561041d573d6000803e3d6000fd5b505050506104ad565b60025461043e9082906001600160a01b031686610520565b60025460405163ad58bdd160e01b81526001600160a01b0385811660048301528481166024830152604482018790529091169063ad58bdd190606401600060405180830381600087803b15801561049457600080fd5b505af11580156104a8573d6000803e3d6000fd5b505050505b816001600160a01b0316336001600160a01b0316846001600160a01b03167f0913aa4718e76655dbdbde41862a88aba8459d8721849484c97f53af3b5028e6876040516104fc91815260200190565b60405180910390a450505050565b610518868686868686610631565b505050505050565b604051636eb1769f60e11b81523060048201526001600160a01b03838116602483015282919085169063dd62ed3e9060440160206040518083038186803b15801561056a57600080fd5b505afa15801561057e573d6000803e3d6000fd5b505050506040513d601f19601f820116820180604052508101906105a291906108b1565b101561062c5760405163095ea7b360e01b81526001600160a01b0383811660048301526024820183905284169063095ea7b390604401602060405180830381600087803b1580156105f257600080fd5b505af1158015610606573d6000803e3d6000fd5b505050506040513d601f19601f8201168201806040525081019061062a9190610888565b505b505050565b600054610100900460ff168061064a575060005460ff16155b6106c05760405162461bcd60e51b815260206004820152602e60248201527f496e697469616c697a61626c653a20636f6e747261637420697320616c72656160448201527f647920696e697469616c697a6564000000000000000000000000000000000000606482015260840160405180910390fd5b600054610100900460ff161580156106e2576000805461ffff19166101011790555b600080547fffffffffffffffffffff0000000000000000000000000000000000000000ffff16620100006001600160a01b038a81169190910291909117909155600180547fffffffffffffffffffffffff0000000000000000000000000000000000000000908116898416179091556002805482168884161790556003805482168784161790556004805482168684161781556005805490921692851692831790915560405163095ea7b360e01b81523091810191909152600019602482015263095ea7b390604401600060405180830381600087803b1580156107c557600080fd5b505af11580156107d9573d6000803e3d6000fd5b5050505080156107ef576000805461ff00191690555b50505050505050565b80356001600160a01b038116811461080f57600080fd5b919050565b60008060008060008060c0878903121561082d57600080fd5b610836876107f8565b9550610844602088016107f8565b9450610852604088016107f8565b9350610860606088016107f8565b925061086e608088016107f8565b915061087c60a088016107f8565b90509295509295509295565b60006020828403121561089a57600080fd5b815180151581146108aa57600080fd5b9392505050565b6000602082840312156108c357600080fd5b5051919050565b600080604083850312156108dd57600080fd5b823591506108ed602084016107f8565b9050925092905056fea2646970667358221220c0498832611b3c5a11409c89e0150a7cc46c81c3b0da852df585a16a982eae5564736f6c63430008060033",
  "linkReferences": {},
  "deployedLinkReferences": {}
}